:100000000C942A000C94630A0C94980A0C94CD0A60
:100010000C9447000C9447000C9447000C94470044
:100020000C9447000C9447000C9447000C94470034
:100030000C9447000C9447000C9447000C94470024
:100040000C9447000C9447000C9447000C94470014
:100050000C94470011241FBECFE5D4E0DEBFCDBF16
:1000600010E0A0E6B0E0EEEBF2E202C005900D92E7
:10007000A038B107D9F720E0A0E8B0E001C01D9298
:10008000A638B207E1F70E94CC0F0C945D110C94D6
:100090000000CF93DF930F92CDB7DEB740E060E072
:1000A00083E00E94760B41E061E083E00E94760BE2
:1000B00089E290E023E3FC0120838981877E8983A4
:1000C00089818E7F89838981866089838AE290E035
:1000D000FC0120812B7FFC0120838981806489833E
:1000E00080E490E02981FC0120838AE290E0FC0119
:1000F00020812061FC0120838AE290E0FC012081C4
:100100002860FC01208300000F90DF91CF910895BB
:10011000CF93DF9300D000D000D0CDB7DEB78E8371
:1001200019821A821B821C821D821AC089819A81BF
:10013000AB81BC810196A11DB11D89839A83AB83DC
:10014000BC838BE290E0FC01808185FB882780F9ED
:10015000813031F48CE290E02E81FC0120830AC0D2
:1001600089819A81AB81BC81813DF7E09F07A10520
:10017000B105E0F289819A81AB81BC81803D27E0A5
:100180009207A105B10511F481E08D838D810F9057
:100190000F900F900F900F900F90DF91CF910895D7
:1001A000CF93DF9300D00F92CDB7DEB79B838A83C6
:1001B00019820EC08981882F90E02A813B81820FAD
:1001C000931FFC0180810E94880089818F5F898351
:1001D0008981882F90E02A813B81820F931FFC0147
:1001E0008081811539F7000000000F900F900F906B
:1001F000DF91CF910895CF93DF9300D000D0CDB79A
:10020000DEB79C838B838FEF89831A820CC08A812F
:10021000882F90E02B813C81820F931FFC0110827C
:100220008A818F5F8A838A818A3089F789818F5F8B
:1002300089838981082E000C990B2B813C81820FC8
:10024000931F0E9438018981082E000C990B2B8185
:100250003C81820F931FFC018081833239F70000BB
:1002600000000F900F900F900F90DF91CF910895A5
:10027000CF93DF9300D0CDB7DEB79A838983000098
:100280008BE290E0FC01808187FB882780F9811553
:10029000B9F38CE290E0FC01208189819A81FC0114
:1002A000208380E00F900F90DF91CF910895CF933E
:1002B000DF930F92CDB7DEB7898389818436D8F179
:1002C000998189E2989F812D112482958F70805D9C
:1002D0000E94880099818DEC989F812D1124282FF0
:1002E0002695269526958DEC289F812D1124982FF3
:1002F000969596959695892F880F880F890F880F68
:10030000922F981B80E3890F0E94880029818DEC31
:10031000289F812D1124982F969596959695892F33
:10032000880F880F890F880F922F981B80E3890F01
:100330000E94880027C089818A3000F199818DEC64
:10034000989F812D1124869586958695805D0E94C3
:10035000880029818DEC289F812D1124982F969556
:1003600096959695892F880F880F890F880F922F61
:10037000981B80E3890F0E94880004C08981805DFA
:100380000E94880000000F90DF91CF910895CF93D5
:10039000DF93CDB7DEB781E290E0FC0120812E7FB4
:1003A000FC01208381E290E0FC0120812D7FFC0193
:1003B000208380E290E022E0FC01208386E590E04B
:1003C000FC0120812460FC0120830000DF91CF919B
:1003D0000895CF93DF93CDB7DEB786E590E0FC01BB
:1003E00020812062FC01208386E590E0FC012081D1
:1003F0002460FC01208386E590E0FC0120812068D8
:10040000FC012083000086E590E0FC01808187FBF1
:10041000882780F98115B9F300000000DF91CF91A2
:100420000895CF93DF93CDB7DEB786E590E0FC016A
:1004300020812061FC01208386E590E0FC01208181
:100440002460FC01208386E590E0FC012081206887
:10045000FC0120830000DF91CF910895CF93DF93BB
:1004600000D0CDB7DEB789836A838981982F990F31
:100470008A818170292F282B83E290E0FC01208360
:1004800086E590E0FC0120812460FC01208386E564
:1004900090E0FC0120812068FC012083000086E5BB
:1004A00090E0FC01808187FB882780F98115B9F3F2
:1004B000000000000F900F90DF91CF910895CF932F
:1004C000DF930F92CDB7DEB7898383E290E0298175
:1004D000FC01208386E590E0FC0120812460FC0182
:1004E000208386E590E0FC0120812068FC012083C8
:1004F000000086E590E0FC01808187FB882780F979
:100500008115B9F3000000000F90DF91CF9108959D
:10051000CF93DF93CDB7DEB786E590E0FC01208175
:100520002064FC01208386E590E0FC0120812460AA
:10053000FC01208386E590E0FC0120812068FC011D
:100540002083000086E590E0FC01808187FB8827FE
:1005500080F98115B9F383E290E0FC018081DF919D
:10056000CF910895CF93DF93CDB7DEB786E590E0C6
:10057000FC0120812F7BFC01208386E590E0FC01BB
:1005800020812460FC01208386E590E0FC0120812D
:100590002068FC012083000086E590E0FC0180815A
:1005A00087FB882780F98115B9F383E290E0FC018D
:1005B0008081DF91CF910895CF93DF930F92CDB7D4
:1005C000DEB7898382E290E02981220FFC0120833B
:1005D00086E590E0FC0120812064FC01208386E513
:1005E00090E0FC0120812460FC01208386E590E0FE
:1005F000FC0120812068FC01208300000F90DF9126
:10060000CF910895CF93DF93CDB7DEB7000086E595
:1006100090E0FC01808187FB882780F98115B9F380
:1006200000000000DF91CF910895CF93DF93CDB705
:10063000DEB786E590E0FC0120812064FC01208388
:1006400086E590E0FC0120812460FC01208386E5A2
:1006500090E0FC0120812068FC012083000086E5F9
:1006600090E0FC01808187FB882780F98115B9F330
:1006700083E290E0FC018081DF91CF910895CF93D8
:10068000DF930F92CDB7DEB7898383E290E02981B3
:10069000FC01208386E590E0FC0120812064FC01C0
:1006A000208386E590E0FC0120812460FC0120830A
:1006B00086E590E0FC0120812068FC012083000099
:1006C00086E590E0FC01808187FB882780F9811511
:1006D000B9F3000000000F90DF91CF910895CF9300
:1006E000DF93CDB7DEB782E290E0FC01208121608C
:1006F000FC0120830000DF91CF910895CF93DF9319
:10070000CDB7DEB741E065E083E00E94760B8FE471
:1007100090E0FC0120818FE490E02E7FFC0120839B
:100720008FE490E0FC0120818FE490E02260FC01E6
:1007300020838EE490E0FC0120818EE490E028602C
:10074000FC0120838EE490E0FC0120818EE490E0A7
:100750002061FC0120838FE490E0FC0120818FE484
:1007600090E02068FC0120838FE490E0FC01208170
:100770008FE490E02F7BFC0120830000DF91CF917C
:100780000895CF93DF93CDB7DEB786E490E02EE4F3
:1007900030E0FC01318320830000DF91CF91089588
:1007A000CF93DF9300D0CDB7DEB79A8389838AE4F5
:1007B00090E029813A81FC013183208300000F9071
:1007C0000F90DF91CF910895CF93DF93CDB7DEB730
:1007D0008EE490E0FC0120818EE490E02E7FFC010D
:1007E00020838EE490E0FC0120818EE490E02D7F58
:1007F000FC0120838EE490E0FC0120818EE490E0F7
:100800002460FC0120830000DF91CF910895CF93F5
:10081000DF93CDB7DEB78EE490E0FC0120818EE45B
:1008200090E02E7FFC0120838EE490E0FC0120818B
:100830008EE490E02D7FFC0120838EE490E0FC01AB
:1008400020818EE490E02B7FFC0120830000DF916B
:10085000CF910895CF93DF93CDB7DEB741E063E04A
:1008600081E00E94760B83E590E0FC01208120640A
:10087000FC01208383E590E0FC0120812860FC01DD
:10088000208383E590E0FC0120812F7C2062FC0125
:1008900020830000DF91CF910895CF93DF93CDB7F0
:1008A000DEB783E590E0FC012081287FFC012083F6
:1008B0000000DF91CF910895CF93DF93CDB7DEB7DE
:1008C00083E590E0FC012081287F2460FC012083E7
:1008D0000000DF91CF910895CF93DF930F92CDB7B2
:1008E000DEB7898382E590E02981FC012083000046
:1008F0000F90DF91CF910895CF93DF93CDB7DEB7FF
:1009000082E590E0FC018081DF91CF9108950F9303
:100910001F93CF93DF930F92CDB7DEB78983898181
:10092000482F50E060E070E08FEF90E0DC019A012A
:10093000AB010E942810DC01CB0104E610E020E0AE
:1009400030E0BC01CD01A90198010E940610DA0136
:10095000C901AC01BD018CE590E0242FFC0120838E
:1009600000000F90DF91CF911F910F910895CF93C9
:10097000DF93CDB7DEB781E490E0FC0120812860F1
:10098000FC0120830000DF91CF910895CF93DF9386
:10099000CDB7DEB781E490E028E1FC01208381E45B
:1009A00090E0FC012081277FFC0120830000DF9183
:1009B000CF910895CF93DF930F92CDB7DEB78983A0
:1009C00081E490E0298127702770FC013081387F15
:1009D000232BFC01208300000F90DF91CF9108951D
:1009E000CF93DF93CDB7DEB72E970FB6F894DEBF67
:1009F0000FBECDBF80E090E0A0EFB1E489839A8381
:100A0000AB83BC8320E030E04AE753E469817A811C
:100A10008B819C810E94C810DC01CB018D839E8359
:100A2000AF83B88720E030E040E85FE36D817E81EE
:100A30008F8198850E94421081152CF481E090E00E
:100A40009A87898740C020E03FEF4FE757E46D81E8
:100A50007E818F8198850E94C310813054F120E0FF
:100A600030E040E251E469817A818B819C810E946F
:100A7000C810DC01CB01BC01CD010E944710DC0194
:100A8000CB019A87898710C089E190E09C878B878A
:100A90008B859C850197F1F79C878B870000898562
:100AA0009A8501979A87898789859A85009761F742
:100AB00015C06D817E818F8198850E944710DC0171
:100AC000CB019A87898789859A859E878D878D85B1
:100AD0009E850197F1F79E878D87000041E066E0D3
:100AE00081E00E94760B41E067E081E00E94760B96
:100AF00041E062E080E00E94760B41E063E080E04C
:100B00000E94760B41E064E080E00E94760B41E0B9
:100B100065E080E00E94760B82E00E94120788E286
:100B20000E9412078CE00E94120781E00E941207C7
:100B300086E00E94120700002E960FB6F894DEBFE2
:100B40000FBECDBFDF91CF910895CF93DF93CDB787
:100B5000DEB76D970FB6F894DEBF0FBECDBF8D8F99
:100B60008D8D87FB882780F9482F65E080E00E9403
:100B7000790C8D8D82958695869583708170482F2E
:100B800064E080E00E94790C8D8D82958695877057
:100B90008170482F63E080E00E94790C8D8D8295F2
:100BA0008F708170482F62E080E00E94790C41E0F4
:100BB00067E081E00E94790C80E090E0A0E0B0E482
:100BC0008F87988BA98BBA8B20E030E04AE753E4FB
:100BD0006F85788989899A890E94C810DC01CB01C8
:100BE0008B8B9C8BAD8BBE8B20E030E040E85FE3CD
:100BF0006B897C898D899E890E94421081152CF415
:100C000081E090E0988F8F8B40C020E03FEF4FE76E
:100C100057E46B897C898D899E890E94C31081303D
:100C200054F120E030E040E251E46F857889898911
:100C30009A890E94C810DC01CB01BC01CD010E9441
:100C40004710DC01CB01988F8F8B10C089E190E0B9
:100C50009A8F898F898D9A8D0197F1F79A8F898F55
:100C600000008F89988D0197988F8F8B8F89988D31
:100C7000009761F715C06B897C898D899E890E94D8
:100C80004710DC01CB01988F8F8B8F89988D9C8FBB
:100C90008B8F8B8D9C8D0197F1F79C8F8B8F000034
:100CA00040E067E081E00E94790C8D8D8695869505
:100CB00086958170482F65E080E00E94790C8D8DCB
:100CC000869586958170482F64E080E00E94790CBB
:100CD0008D8D86958170482F63E080E00E94790CAD
:100CE0008D8D8170482F62E080E00E94790C41E098
:100CF00067E081E00E94790C80E090E0A0E0B0E441
:100D000089839A83AB83BC8320E030E04AE753E4D5
:100D100069817A818B819C810E94C810DC01CB01A2
:100D20008D839E83AF83B88720E030E040E85FE3A7
:100D30006D817E818F8198850E94421081152CF4EF
:100D400081E090E09A87898740C020E03FEF4FE73D
:100D500057E46D817E818F8198850E94C310813018
:100D600054F120E030E040E251E469817A818B81E6
:100D70009C810E94C810DC01CB01BC01CD010E9406
:100D80004710DC01CB019A87898710C089E190E088
:100D90009C878B878B859C850197F1F79C878B8738
:100DA000000089859A8501979A87898789859A8520
:100DB000009761F715C06D817E818F8198850E94B3
:100DC0004710DC01CB019A87898789859A859E87A0
:100DD0008D878D859E850197F1F79E878D87000011
:100DE00040E067E081E00E94790C00006D960FB64C
:100DF000F894DEBF0FBECDBFDF91CF910895CF93A2
:100E0000DF930F92CDB7DEB7898341E066E081E0E2
:100E10000E94790C89810E94A50500000F90DF9146
:100E2000CF910895CF93DF930F92CDB7DEB789832B
:100E300040E066E081E00E94790C89810E94A5056E
:100E400000000F90DF91CF910895CF93DF9300D0F2
:100E500000D0CDB7DEB79C838B831A8219820FC076
:100E60002B813C8189819A81820F931FFC018081B3
:100E70000E94FF0689819A8101969A8389832B813A
:100E80003C8189819A81820F931FFC0180818115A9
:100E900039F7000000000F900F900F900F90DF9136
:100EA000CF910895CF93DF9300D000D000D00F9260
:100EB000CDB7DEB78E836F8380E090E49B838A8317
:100EC00084E194E59D838C838E81882F90E09E0140
:100ED0002E5F3F4F820F931FFC0190818F81890FFE
:100EE0008058898389810E941207000027960FB6D7
:100EF000F894DEBF0FBECDBFDF91CF910895CF93A1
:100F0000DF93CDB7DEB781E00E9412070000DF91CA
:100F1000CF9108950F931F93CF93DF93CDB7DEB793
:100F200063970FB6F894DEBF0FBECDBF688B798B89
:100F30008A8B9B8B88899989AA89BB8989839A83A3
:100F4000AB83BC831D8289819A81AB81BC810AE01D
:100F500010E020E030E0BC01CD01A90198010E9421
:100F60000610DC01CB01282F8D81882F90E040E313
:100F7000420F9E012A5F3F4F820F931FFC01408367
:100F800089819A81AB81BC810AE010E020E030E0E9
:100F9000BC01CD01A90198010E940610DA01C90126
:100FA00089839A83AB83BC838D818F5F8D83898195
:100FB0009A81AB81BC810097A105B10521F610C0D3
:100FC0008D81882F90E001979E012A5F3F4F820F0D
:100FD000931FFC0180810E94FF068D8181508D83CB
:100FE0008D81811569F70000000063960FB6F894B3
:100FF000DEBF0FBECDBFDF91CF911F910F9108953E
:10100000CF93DF9300D000D00F92CDB7DEB79C8393
:101010008B836D8319828D81885F880F880F880F7D
:101020008A838A810E94120719820EC08981882FC3
:1010300090E02B813C81820F931FFC0180810E94F4
:10104000FF0689818F5F89838981883078F300006A
:1010500000000F900F900F900F900F90DF91CF91A5
:101060000895CF93DF930F92CDB7DEB7898389813F
:101070000E94FF0600000F90DF91CF910895CF935B
:10108000DF930F92CDB7DEB71982198227C089810D
:10109000882F90E088599F4FFC0120818981882FFB
:1010A00090E084599F4FFC01808141E0622F0E94B3
:1010B000760B8981882F90E088599F4FFC01208111
:1010C0008981882F90E084599F4FFC01808141E005
:1010D000622F0E94790C89818F5F89838981843096
:1010E000B0F2198227C08981882F90E0805A9F4FE3
:1010F000FC0120818981882F90E08C599F4FFC0151
:10110000808140E0622F0E94760B8981882F90E0D9
:10111000805A9F4FFC0120818981882F90E08C5953
:101120009F4FFC01808141E0622F0E94790C8981F0
:101130008F5F898389818430B0F2000000000F90B6
:10114000DF91CF910895CF93DF93CDB7DEB764974A
:101150000FB6F894DEBF0FBECDBF8FEF8B8380E15B
:10116000E0E7F0E0DE01159601900D928A95E1F737
:10117000198274C08981882F90E088599F4FFC01A3
:1011800020818981882F90E084599F4FFC018081C4
:1011900040E0622F0E94790C1A8244C08A81882F15
:1011A00090E0805A9F4FFC0120818A81882F90E037
:1011B0008C599F4FFC018081622F0E94790D8C8396
:1011C0008C81811561F58981282F30E08A81882FF3
:1011D00090E0220F331F220F331FAE014F5F5F4F8E
:1011E000240F351F820F931F0496FC0180818B838F
:1011F00012C08A81882F90E0805A9F4FFC01208185
:101200008A81882F90E08C599F4FFC018081622F4A
:101210000E94790D8C838C81811559F307C08A81D6
:101220008F5F8A838A81843008F4B8CF8981882FC0
:1012300090E088599F4FFC0120818981882F90E0A0
:1012400084599F4FFC01808141E0622F0E94790CFC
:101250008B818F3F41F489818F5F898389818430BD
:1012600008F488CF01C000008B8164960FB6F89413
:10127000DEBF0FBECDBFDF91CF910895CF93DF9337
:10128000CDB7DEB78FE590E0FC0120818FE590E0DF
:101290002068FC0120830000DF91CF910895CF9357
:1012A000DF93CDB7DEB78FE590E0FC0120818FE5BD
:1012B00090E02F77FC0120830000DF91CF9108950B
:1012C000CF93DF9300D0CDB7DEB789836A8389815E
:1012D000882F90E08230910509F489C08330910510
:1012E0000CF0B2C0009729F08130910509F440C09C
:1012F000ABC040E062E083E00E94760B41E062E038
:1013000083E00E94790C8A81811599F485E590E04B
:10131000FC01208185E590E02E7FFC01208385E59E
:1013200090E0FC01208185E590E02260FC012083B3
:1013300015C08A81813091F485E590E0FC0120811F
:1013400085E590E02160FC01208385E590E0FC01CB
:10135000208185E590E02260FC0120838BE590E010
:10136000FC0120818BE590E02064FC0120836CC0AF
:1013700040E063E083E00E94760B41E063E083E0BD
:101380000E94790C8A81811599F485E590E0FC0131
:10139000208185E590E02B7FFC01208385E590E0AE
:1013A000FC01208185E590E02860FC01208315C0C8
:1013B0008A81813091F485E590E0FC01208185E50A
:1013C00090E02460FC01208385E590E0FC01208111
:1013D00085E590E02860FC0120838BE590E0FC012E
:1013E00020818BE590E02068FC0120832DC040E047
:1013F00062E081E00E94760B41E062E081E00E94C1
:10140000790C8A81811551F484E590E0FC012081FA
:1014100084E590E02F7BFC0120830CC08A81813021
:1014200049F484E590E0FC01208184E590E02064AB
:10143000FC0120838BE590E0FC0120818BE590E0AE
:101440002062FC012083000000000F900F90DF91CC
:10145000CF910895CF93DF9300D00F92CDB7DEB731
:101460009A8389836B8389819A81009729F18B8183
:10147000882F90E082309105B9F083309105DCF43B
:10148000009721F08130910541F015C089819A8142
:1014900090938100809380000FC089819A819093FE
:1014A00083008093820008C089819A81909385008F
:1014B0008093840001C0000000000F900F900F90F7
:1014C000DF91CF9108951F920F920FB60F921124C2
:1014D0002F933F934F935F936F937F938F939F933C
:1014E000AF93BF93EF93FF93CF93DF93CDB7DEB767
:1014F0008091800090918100009731F08091800070
:1015000090918100FC0109950000DF91CF91FF913E
:10151000EF91BF91AF919F918F917F916F915F916B
:101520004F913F912F910F900FBE0F901F901895E4
:101530001F920F920FB60F9211242F933F934F9348
:101540005F936F937F938F939F93AF93BF93EF932B
:10155000FF93CF93DF93CDB7DEB780918200909158
:101560008300009731F08091820090918300FC010C
:1015700009950000DF91CF91FF91EF91BF91AF915D
:101580009F918F917F916F915F914F913F912F919B
:101590000F900FBE0F901F9018951F920F920FB6CD
:1015A0000F9211242F933F934F935F936F937F93E9
:1015B0008F939F93AF93BF93EF93FF93CF93DF935B
:1015C000CDB7DEB78091840090918500009731F00F
:1015D0008091840090918500FC0109950000DF91C5
:1015E000CF91FF91EF91BF91AF919F918F917F919B
:1015F0006F915F914F913F912F910F900FBE0F9080
:101600001F901895CF93DF9300D0CDB7DEB78983B5
:101610006A838981882F90E08330910509F18430B5
:10162000910524F582309105A9F083309105F4F4F9
:10163000009721F08130910539F018C08AE390E0DD
:101640002A81FC01208312C087E390E02A81FC01FB
:1016500020830CC084E390E02A81FC01208306C033
:1016600081E390E02A81FC012083000000000F90BC
:101670000F90DF91CF910895CF93DF9300D0CDB736
:10168000DEB789836A838981882F90E08330910552
:1016900009F18430910524F582309105A9F0833059
:1016A0009105F4F4009721F08130910539F018C0CC
:1016B0008BE390E02A81FC01208312C088E390E054
:1016C0002A81FC0120830CC085E390E02A81FC0183
:1016D000208306C082E390E02A81FC012083000081
:1016E00000000F900F90DF91CF910895CF93DF937B
:1016F00000D00F92CDB7DEB789836A834B838A818E
:10170000883008F0EFC08B81813009F070C089818A
:10171000882F90E08330910509F453C084309105FF
:101720000CF0DDC082309105B1F1833091050CF0F1
:10173000D6C0009721F081309105B9F0D0C08AE37E
:1017400090E0FC018081482F8A81282F30E081E0E1
:1017500090E002C0880F991F2A95E2F7242F282BCA
:101760008AE390E0FC012083BDC087E390E0FC01A8
:101770008081482F8A81282F30E081E090E002C0EC
:10178000880F991F2A95E2F7242F282B87E390E0F2
:10179000FC012083A7C084E390E0FC018081482FF6
:1017A0008A81282F30E081E090E002C0880F991FE5
:1017B0002A95E2F7242F282B84E390E0FC01208374
:1017C00091C081E390E0FC018081482F8A81282F1D
:1017D00030E081E090E002C0880F991F2A95E2F77F
:1017E000242F282B81E390E0FC0120837BC08B8198
:1017F000811509F077C08981882F90E083309105A9
:1018000009F456C0843091050CF06BC0823091050C
:10181000C1F1833091050CF064C0009721F0813054
:101820009105C1F05EC08AE390E0FC018081482F01
:101830008A81282F30E081E090E002C0880F991F54
:101840002A95E2F78095242F28238AE390E0FC0173
:10185000208348C087E390E0FC018081482F8A8183
:10186000282F30E081E090E002C0880F991F2A9570
:10187000E2F78095242F282387E390E0FC01208362
:1018800031C084E390E0FC018081482F8A81282FB9
:1018900030E081E090E002C0880F991F2A95E2F7BE
:1018A0008095242F282384E390E0FC0120831AC034
:1018B00081E390E0FC018081482F8A81282F30E06D
:1018C00081E090E002C0880F991F2A95E2F7809589
:1018D000242F282381E390E0FC01208303C0000033
:1018E00001C0000000000F900F900F90DF91CF918A
:1018F0000895CF93DF9300D00F92CDB7DEB78983E1
:101900006A834B838A81883008F0ECC08B818130F8
:1019100009F070C08981882F90E08330910509F427
:1019200053C0843091050CF0DDC082309105B1F1D7
:10193000833091050CF0D6C0009721F081309105DD
:10194000B9F0D0C08BE390E0FC018081482F8A8100
:10195000282F30E081E090E002C0880F991F2A957F
:10196000E2F7242F282B8BE390E0FC012083BAC000
:1019700088E390E0FC018081482F8A81282F30E0A5
:1019800081E090E002C0880F991F2A95E2F7242F8A
:10199000282B88E390E0FC012083A4C085E390E03D
:1019A000FC018081482F8A81282F30E081E090E07F
:1019B00002C0880F991F2A95E2F7242F282B85E370
:1019C00090E0FC0120838EC082E390E0FC018081E6
:1019D000482F8A81282F30E081E090E002C0880FF4
:1019E000991F2A95E2F7242F282B82E390E0FC012F
:1019F000208378C08B81811509F074C08981882F7C
:101A000090E08330910509F456C0843091050CF0C4
:101A100069C082309105C1F1833091050CF062C03C
:101A2000009721F081309105C1F05CC08BE390E01C
:101A3000FC018081482F8A81282F30E081E090E0EE
:101A400002C0880F991F2A95E2F78095242F28233A
:101A50008BE390E0FC01208345C088E390E0FC012B
:101A60008081482F8A81282F30E081E090E002C0F9
:101A7000880F991F2A95E2F78095242F282388E361
:101A800090E0FC0120832EC085E390E0FC01808182
:101A9000482F8A81282F30E081E090E002C0880F33
:101AA000991F2A95E2F78095242F282385E390E05B
:101AB000FC01208317C082E390E0FC018081482F65
:101AC0008A81282F30E081E090E002C0880F991FC2
:101AD0002A95E2F78095242F282382E390E0FC01E9
:101AE0002083000000000F900F900F90DF91CF91A6
:101AF0000895CF93DF9300D00F92CDB7DEB78A83DE
:101B00006B838B81883008F060C08A81882F90E0D9
:101B10008330910509F447C0843091050CF055C01D
:101B20008230910571F1833091050CF04EC0009721
:101B300021F08130910599F048C089E390E0FC01E3
:101B40008081882F90E02B81222F30E0022E02C06E
:101B5000959587950A94E2F78170898336C086E36C
:101B600090E0FC018081882F90E02B81222F30E0D3
:101B7000022E02C0959587950A94E2F781708983B9
:101B800024C083E390E0FC018081882F90E02B81CA
:101B9000222F30E0022E02C0959587950A94E2F735
:101BA0008170898312C080E390E0FC018081882FDE
:101BB00090E02B81222F30E0022E02C09595879570
:101BC0000A94E2F781708983000089810F900F9059
:101BD0000F90DF91CF910895CF93DF9300D0CDB7D1
:101BE000DEB789836A838A81883008F070C0898172
:101BF000882F90E08330910509F453C0843091051B
:101C00000CF065C082309105B1F1833091050CF084
:101C10005EC0009721F081309105B9F058C08BE388
:101C200090E0FC018081482F8A81282F30E081E0FC
:101C300090E002C0880F991F2A95E2F7242F2827E9
:101C40008BE390E0FC01208342C088E390E0FC013C
:101C50008081482F8A81282F30E081E090E002C007
:101C6000880F991F2A95E2F7242F282788E390E010
:101C7000FC0120832CC085E390E0FC018081482F8B
:101C80008A81282F30E081E090E002C0880F991F00
:101C90002A95E2F7242F282785E390E0FC01208392
:101CA00016C082E390E0FC018081482F8A81282FB2
:101CB00030E081E090E002C0880F991F2A95E2F79A
:101CC000242F282782E390E0FC01208300000000FD
:101CD0000F900F90DF91CF910895CF93DF93CDB701
:101CE000DEB787E290E0FC0120812F7DFC0120839C
:101CF00087E290E0FC0120812F732064FC012083A7
:101D000086E290E0FC012081287F2460FC01208392
:101D100086E290E0FC0120812068FC01208386E2BD
:101D200090E0FC0120812062FC01208380E590E0AE
:101D3000FC0120812F71FC0120830000DF91CF91F5
:101D40000895CF93DF9300D0CDB7DEB78A8382E0CA
:101D500089838A81883060F487E290E02A812F713C
:101D60002F71FC013081307E232BFC01208302C0C7
:101D700083E0898389810F900F90DF91CF9108953F
:101D8000CF93DF9300D000D000D00F92CDB7DEB755
:101D90009F838E8319821A821B821C8282E08D832C
:101DA0008E819F81009709F443C086E290E0FC0198
:101DB00020812064FC0120830BC089819A81AB8142
:101DC000BC810196A11DB11D89839A83AB83BC831D
:101DD00086E290E0FC01808182958170811559F442
:101DE00089819A81AB81BC81813AF6E89F07F1E055
:101DF000AF07B10510F386E290E0FC018081829587
:101E00008170813091F486E290E0FC0120812061B4
:101E1000FC01208384E290E0FC01208131818E81ED
:101E20009F81FC013183208304C081E08D8301C048
:101E30001D828D8127960FB6F894DEBF0FBECDBFF1
:101E4000DF91CF910895CF93DF93CDB7DEB786E2D0
:101E500090E0FC0120812064FC0120830000DF91E0
:101E6000CF910895CF93DF9300D000D0CDB7DEB7E8
:101E70009C838B8384E0898382E08A838B819C812D
:101E80000097B9F012C089818150898389810E94AD
:101E9000A10E8981882F90E0880F991F2B813C81AA
:101EA000820F931F0E94C00E8A838981811559F782
:101EB00001C01A828A810F900F900F900F90DF91CE
:101EC000CF910895CF92DF92EF92FF920F931F93DD
:101ED000CF93DF93CDB7DEB72C970FB6F894DEBF64
:101EE0000FBECDBF9E838D8378876F835A874987C6
:101EF0003C872B871A82198284E290E0FC01808162
:101F000091819A83898329813A818D819E81A9015A
:101F1000481B590BCA01CC01A0E0B0E04B855C85A1
:101F200029853A85BA01621B730B9B016901E12C7B
:101F3000F12C9C01AD01C701B6010E94F60FAB0167
:101F4000BC012F8138858D819E81F901E81BF90B39
:101F5000CF018C0120E030E0CB01BA01A90198014A
:101F60000E940610DA01C9019C0189859A85820FB9
:101F7000931F9C838B838B819C812C960FB6F89446
:101F8000DEBF0FBECDBFDF91CF911F910F91FF90AC
:101F9000EF90DF90CF9008950F931F93CF93DF932F
:101FA00000D000D0CDB7DEB70E94F00480E20E94DE
:101FB000DC020E94020319820FC08981082F10E001
:101FC0000E941503282FCE010296800F911FFC015D
:101FD000208389818F5F89838981833070F30E9498
:101FE0007F07CE0102960E942507E3CFDB018F9386
:101FF0009F930E942810BF91AF91A29F800D911DC9
:10200000A39F900DB29F900D11240895A1E21A2E66
:10201000AA1BBB1BFD010DC0AA1FBB1FEE1FFF1F8C
:10202000A217B307E407F50720F0A21BB30BE40BDC
:10203000F50B661F771F881F991F1A9469F7609523
:102040007095809590959B01AC01BD01CF010895DD
:102050000E943310A59F900DB49F900DA49F800DFA
:10206000911D11240895A29FB001B39FC001A39FA9
:10207000700D811D1124911DB29F700D811D1124C1
:10208000911D08950E94761008F481E008950E9441
:10209000A21088F09F5798F0B92F9927B751B0F048
:1020A000E1F0660F771F881F991F1AF0BA95C9F7DC
:1020B00014C0B13091F00E94BC10B1E008950C94AE
:1020C000BC10672F782F8827B85F39F0B93FCCF361
:1020D000869577956795B395D9F73EF49095809559
:1020E000709561957F4F8F4F9F4F0895990F00080E
:1020F000550FAA0BE0E8FEEF16161706E807F907DA
:10210000C0F012161306E407F50798F0621B730B74
:10211000840B950B39F40A2661F0232B242B252BF5
:1021200021F408950A2609F4A140A6958FEF811D98
:10213000811D089557FD9058440F551F59F05F3F7A
:1021400071F04795880F97FB991F61F09F3F79F0D9
:1021500087950895121613061406551FF2CF46955B
:10216000F1DF08C0161617061806991FF1CF8695DD
:102170007105610508940895E894BB2766277727C1
:10218000CB0197F908950E94761008F48FEF089517
:102190000E94DB100C944C110E943E1138F00E94FA
:1021A000451120F0952311F00C9435110C943B113E
:1021B00011240C94BD100E949A1070F3959FC1F3E6
:1021C000950F50E0551F629FF001729FBB27F00DE5
:1021D000B11D639FAA27F00DB11DAA1F649F66273A
:1021E000B00DA11D661F829F2227B00DA11D621F89
:1021F000739FB00DA11D621F839FA00D611D221F43
:10220000749F3327A00D611D231F849F600D211D26
:10221000822F762F6A2F11249F5750409AF0F1F0A9
:1022200088234AF0EE0FFF1FBB1F661F771F881F12
:1022300091505040A9F79E3F510580F00C94351104
:102240000C94BD105F3FE4F3983ED4F386957795E8
:102250006795B795F795E7959F5FC1F7FE2B880FB8
:10226000911D9695879597F9089597F99F6780E84E
:1022700070E060E008959FEF80EC089500240A94D8
:102280001616170618060906089500240A94121651
:102290001306140605060895092E0394000C11F484
:1022A000882352F0BB0F40F4BF2B11F460FF04C031
:0E22B0006F5F7F4F8F4F9F4F0895F894FFCFC1
:1022BE0000010203030303030001020302020202F0
:1022CE003738392F3435362A3132332D43303D2BC2
:00000001FF
